{
  "_format": "hh-sol-artifact-1",
  "contractName": "Zhu",
  "sourceName": "contracts/Zhu.sol",
  "abi": [
    {
      "inputs": [
        {
          "internalType": "uint256",
          "name": "initialSupply",
          "type": "uint256"
        }
      ],
      "stateMutability": "nonpayable",
      "type": "constructor"
    },
    {
      "inputs": [],
      "name": "Zhu__LockTimeNotReached",
      "type": "error"
    },
    {
      "anonymous": false,
      "inputs": [
        {
          "indexed": true,
          "internalType": "address",
          "name": "owner",
          "type": "address"
        },
        {
          "indexed": true,
          "internalType": "address",
          "name": "spender",
          "type": "address"
        },
        {
          "indexed": false,
          "internalType": "uint256",
          "name": "value",
          "type": "uint256"
        }
      ],
      "name": "Approval",
      "type": "event"
    },
    {
      "anonymous": false,
      "inputs": [
        {
          "indexed": true,
          "internalType": "address",
          "name": "from",
          "type": "address"
        },
        {
          "indexed": true,
          "internalType": "address",
          "name": "to",
          "type": "address"
        },
        {
          "indexed": false,
          "internalType": "uint256",
          "name": "value",
          "type": "uint256"
        }
      ],
      "name": "Transfer",
      "type": "event"
    },
    {
      "inputs": [
        {
          "internalType": "address",
          "name": "spender",
          "type": "address"
        },
        {
          "internalType": "uint256",
          "name": "amount",
          "type": "uint256"
        }
      ],
      "name": "_approve",
      "outputs": [
        {
          "internalType": "bool",
          "name": "",
          "type": "bool"
        }
      ],
      "stateMutability": "nonpayable",
      "type": "function"
    },
    {
      "inputs": [
        {
          "internalType": "address",
          "name": "owner",
          "type": "address"
        },
        {
          "internalType": "address",
          "name": "spender",
          "type": "address"
        }
      ],
      "name": "allowance",
      "outputs": [
        {
          "internalType": "uint256",
          "name": "",
          "type": "uint256"
        }
      ],
      "stateMutability": "view",
      "type": "function"
    },
    {
      "inputs": [
        {
          "internalType": "address",
          "name": "spender",
          "type": "address"
        },
        {
          "internalType": "uint256",
          "name": "amount",
          "type": "uint256"
        }
      ],
      "name": "approve",
      "outputs": [
        {
          "internalType": "bool",
          "name": "",
          "type": "bool"
        }
      ],
      "stateMutability": "nonpayable",
      "type": "function"
    },
    {
      "inputs": [
        {
          "internalType": "address",
          "name": "account",
          "type": "address"
        }
      ],
      "name": "balanceOf",
      "outputs": [
        {
          "internalType": "uint256",
          "name": "",
          "type": "uint256"
        }
      ],
      "stateMutability": "view",
      "type": "function"
    },
    {
      "inputs": [],
      "name": "decimals",
      "outputs": [
        {
          "internalType": "uint8",
          "name": "",
          "type": "uint8"
        }
      ],
      "stateMutability": "view",
      "type": "function"
    },
    {
      "inputs": [
        {
          "internalType": "address",
          "name": "spender",
          "type": "address"
        },
        {
          "internalType": "uint256",
          "name": "subtractedValue",
          "type": "uint256"
        }
      ],
      "name": "decreaseAllowance",
      "outputs": [
        {
          "internalType": "bool",
          "name": "",
          "type": "bool"
        }
      ],
      "stateMutability": "nonpayable",
      "type": "function"
    },
    {
      "inputs": [],
      "name": "faucet",
      "outputs": [],
      "stateMutability": "nonpayable",
      "type": "function"
    },
    {
      "inputs": [
        {
          "internalType": "address",
          "name": "",
          "type": "address"
        }
      ],
      "name": "faucetUseCount",
      "outputs": [
        {
          "internalType": "uint16",
          "name": "",
          "type": "uint16"
        }
      ],
      "stateMutability": "view",
      "type": "function"
    },
    {
      "inputs": [
        {
          "internalType": "address",
          "name": "_address",
          "type": "address"
        }
      ],
      "name": "getFaucetCountOf",
      "outputs": [
        {
          "internalType": "uint16",
          "name": "",
          "type": "uint16"
        }
      ],
      "stateMutability": "view",
      "type": "function"
    },
    {
      "inputs": [
        {
          "internalType": "address",
          "name": "_address",
          "type": "address"
        }
      ],
      "name": "getLockTimeOf",
      "outputs": [
        {
          "internalType": "uint256",
          "name": "",
          "type": "uint256"
        }
      ],
      "stateMutability": "view",
      "type": "function"
    },
    {
      "inputs": [
        {
          "internalType": "address",
          "name": "spender",
          "type": "address"
        },
        {
          "internalType": "uint256",
          "name": "addedValue",
          "type": "uint256"
        }
      ],
      "name": "increaseAllowance",
      "outputs": [
        {
          "internalType": "bool",
          "name": "",
          "type": "bool"
        }
      ],
      "stateMutability": "nonpayable",
      "type": "function"
    },
    {
      "inputs": [
        {
          "internalType": "address",
          "name": "",
          "type": "address"
        }
      ],
      "name": "lockTime",
      "outputs": [
        {
          "internalType": "uint256",
          "name": "",
          "type": "uint256"
        }
      ],
      "stateMutability": "view",
      "type": "function"
    },
    {
      "inputs": [
        {
          "internalType": "address",
          "name": "to",
          "type": "address"
        },
        {
          "internalType": "uint256",
          "name": "amount",
          "type": "uint256"
        }
      ],
      "name": "mintTokenTo",
      "outputs": [],
      "stateMutability": "nonpayable",
      "type": "function"
    },
    {
      "inputs": [],
      "name": "name",
      "outputs": [
        {
          "internalType": "string",
          "name": "",
          "type": "string"
        }
      ],
      "stateMutability": "view",
      "type": "function"
    },
    {
      "inputs": [],
      "name": "symbol",
      "outputs": [
        {
          "internalType": "string",
          "name": "",
          "type": "string"
        }
      ],
      "stateMutability": "view",
      "type": "function"
    },
    {
      "inputs": [],
      "name": "totalSupply",
      "outputs": [
        {
          "internalType": "uint256",
          "name": "",
          "type": "uint256"
        }
      ],
      "stateMutability": "view",
      "type": "function"
    },
    {
      "inputs": [
        {
          "internalType": "address",
          "name": "to",
          "type": "address"
        },
        {
          "internalType": "uint256",
          "name": "amount",
          "type": "uint256"
        }
      ],
      "name": "transfer",
      "outputs": [
        {
          "internalType": "bool",
          "name": "",
          "type": "bool"
        }
      ],
      "stateMutability": "nonpayable",
      "type": "function"
    },
    {
      "inputs": [
        {
          "internalType": "address",
          "name": "from",
          "type": "address"
        },
        {
          "internalType": "address",
          "name": "to",
          "type": "address"
        },
        {
          "internalType": "uint256",
          "name": "amount",
          "type": "uint256"
        }
      ],
      "name": "transferFrom",
      "outputs": [
        {
          "internalType": "bool",
          "name": "",
          "type": "bool"
        }
      ],
      "stateMutability": "nonpayable",
      "type": "function"
    }
  ],
  "bytecode": "0x60806040523480156200001157600080fd5b50604051620023c8380380620023c88339818101604052810190620000379190620002cc565b6040518060400160405280600381526020017f5a687500000000000000000000000000000000000000000000000000000000008152506040518060400160405280600381526020017f5a485500000000000000000000000000000000000000000000000000000000008152508160039081620000b491906200056e565b508060049081620000c691906200056e565b5050506200010533620000de6200010c60201b60201c565b600a620000ec9190620007e5565b83620000f9919062000836565b6200011560201b60201c565b506200096d565b60006012905090565b600073ffffffffffffffffffffffffffffffffffffffff168273ffffffffffffffffffffffffffffffffffffffff160362000187576040517f08c379a00000000000000000000000000000000000000000000000000000000081526004016200017e90620008e2565b60405180910390fd5b6200019b600083836200028260201b60201c565b8060026000828254620001af919062000904565b92505081905550806000808473ffffffffffffffffffffffffffffffffffffffff1673ffffffffffffffffffffffffffffffffffffffff168152602001908152602001600020600082825401925050819055508173ffffffffffffffffffffffffffffffffffffffff16600073ffffffffffffffffffffffffffffffffffffffff167fddf252ad1be2c89b69c2b068fc378daa952ba7f163c4a11628f55a4df523b3ef8360405162000262919062000950565b60405180910390a36200027e600083836200028760201b60201c565b5050565b505050565b505050565b600080fd5b6000819050919050565b620002a68162000291565b8114620002b257600080fd5b50565b600081519050620002c6816200029b565b92915050565b600060208284031215620002e557620002e46200028c565b5b6000620002f584828501620002b5565b91505092915050565b600081519050919050565b7f4e487b7100000000000000000000000000000000000000000000000000000000600052604160045260246000fd5b7f4e487b7100000000000000000000000000000000000000000000000000000000600052602260045260246000fd5b600060028204905060018216806200038057607f821691505b60208210810362000396576200039562000338565b5b50919050565b60008190508160005260206000209050919050565b60006020601f8301049050919050565b600082821b905092915050565b600060088302620004007fffffffffffffffffffffffffffffffffffffffffffffffffffffffffffffffff82620003c1565b6200040c8683620003c1565b95508019841693508086168417925050509392505050565b6000819050919050565b60006200044f62000449620004438462000291565b62000424565b62000291565b9050919050565b6000819050919050565b6200046b836200042e565b620004836200047a8262000456565b848454620003ce565b825550505050565b600090565b6200049a6200048b565b620004a781848462000460565b505050565b5b81811015620004cf57620004c360008262000490565b600181019050620004ad565b5050565b601f8211156200051e57620004e8816200039c565b620004f384620003b1565b8101602085101562000503578190505b6200051b6200051285620003b1565b830182620004ac565b50505b505050565b600082821c905092915050565b6000620005436000198460080262000523565b1980831691505092915050565b60006200055e838362000530565b9150826002028217905092915050565b6200057982620002fe565b67ffffffffffffffff81111562000595576200059462000309565b5b620005a1825462000367565b620005ae828285620004d3565b600060209050601f831160018114620005e65760008415620005d1578287015190505b620005dd858262000550565b8655506200064d565b601f198416620005f6866200039c565b60005b828110156200062057848901518255600182019150602085019450602081019050620005f9565b868310156200064057848901516200063c601f89168262000530565b8355505b6001600288020188555050505b505050505050565b7f4e487b7100000000000000000000000000000000000000000000000000000000600052601160045260246000fd5b60008160011c9050919050565b6000808291508390505b6001851115620006e357808604811115620006bb57620006ba62000655565b5b6001851615620006cb5780820291505b8081029050620006db8562000684565b94506200069b565b94509492505050565b600082620006fe5760019050620007d1565b816200070e5760009050620007d1565b8160018114620007275760028114620007325762000768565b6001915050620007d1565b60ff84111562000747576200074662000655565b5b8360020a91508482111562000761576200076062000655565b5b50620007d1565b5060208310610133831016604e8410600b8410161715620007a25782820a9050838111156200079c576200079b62000655565b5b620007d1565b620007b1848484600162000691565b92509050818404811115620007cb57620007ca62000655565b5b81810290505b9392505050565b600060ff82169050919050565b6000620007f28262000291565b9150620007ff83620007d8565b92506200082e7fffffffffffffffffffffffffffffffffffffffffffffffffffffffffffffffff8484620006ec565b905092915050565b6000620008438262000291565b9150620008508362000291565b9250828202620008608162000291565b915082820484148315176200087a576200087962000655565b5b5092915050565b600082825260208201905092915050565b7f45524332303a206d696e7420746f20746865207a65726f206164647265737300600082015250565b6000620008ca601f8362000881565b9150620008d78262000892565b602082019050919050565b60006020820190508181036000830152620008fd81620008bb565b9050919050565b6000620009118262000291565b91506200091e8362000291565b925082820190508082111562000939576200093862000655565b5b92915050565b6200094a8162000291565b82525050565b60006020820190506200096760008301846200093f565b92915050565b611a4b806200097d6000396000f3fe608060405234801561001057600080fd5b50600436106101165760003560e01c80637b7d7225116100a2578063a9059cbb11610071578063a9059cbb1461032f578063b96ab1871461035f578063dd62ed3e1461038f578063de5f72fd146103bf578063f196170d146103c957610116565b80637b7d72251461028157806395d89b41146102b1578063a457c2d7146102cf578063a4beda63146102ff57610116565b806323b872dd116100e957806323b872dd146101b7578063313ce567146101e75780633950935114610205578063669a1f691461023557806370a082311461025157610116565b806306fdde031461011b578063095ea7b3146101395780630dc9fe101461016957806318160ddd14610199575b600080fd5b6101236103f9565b604051610130919061108e565b60405180910390f35b610153600480360381019061014e9190611149565b61048b565b60405161016091906111a4565b60405180910390f35b610183600480360381019061017e91906111bf565b6104ae565b6040516101909190611209565b60405180910390f35b6101a1610505565b6040516101ae9190611233565b60405180910390f35b6101d160048036038101906101cc919061124e565b61050f565b6040516101de91906111a4565b60405180910390f35b6101ef61053e565b6040516101fc91906112bd565b60405180910390f35b61021f600480360381019061021a9190611149565b610547565b60405161022c91906111a4565b60405180910390f35b61024f600480360381019061024a9190611149565b61057e565b005b61026b600480360381019061026691906111bf565b61058c565b6040516102789190611233565b60405180910390f35b61029b60048036038101906102969190611149565b6105d4565b6040516102a891906111a4565b60405180910390f35b6102b961060b565b6040516102c6919061108e565b60405180910390f35b6102e960048036038101906102e49190611149565b61069d565b6040516102f691906111a4565b60405180910390f35b610319600480360381019061031491906111bf565b610714565b6040516103269190611233565b60405180910390f35b61034960048036038101906103449190611149565b61072c565b60405161035691906111a4565b60405180910390f35b610379600480360381019061037491906111bf565b61074f565b6040516103869190611233565b60405180910390f35b6103a960048036038101906103a491906112d8565b610798565b6040516103b69190611233565b60405180910390f35b6103c761081f565b005b6103e360048036038101906103de91906111bf565b6109aa565b6040516103f09190611209565b60405180910390f35b60606003805461040890611347565b80601f016020809104026020016040519081016040528092919081815260200182805461043490611347565b80156104815780601f1061045657610100808354040283529160200191610481565b820191906000526020600020905b81548152906001019060200180831161046457829003601f168201915b5050505050905090565b6000806104966109cb565b90506104a38185856109d3565b600191505092915050565b6000600560008373ffffffffffffffffffffffffffffffffffffffff1673ffffffffffffffffffffffffffffffffffffffff16815260200190815260200160002060009054906101000a900461ffff169050919050565b6000600254905090565b60008061051a6109cb565b9050610527858285610b9c565b610532858585610c28565b60019150509392505050565b60006012905090565b6000806105526109cb565b90506105738185856105648589610798565b61056e91906113a7565b6109d3565b600191505092915050565b6105888282610e9e565b5050565b60008060008373ffffffffffffffffffffffffffffffffffffffff1673ffffffffffffffffffffffffffffffffffffffff168152602001908152602001600020549050919050565b6000806105ff846105e361053e565b600a6105ef919061150e565b856105fa9190611559565b61048b565b90508091505092915050565b60606004805461061a90611347565b80601f016020809104026020016040519081016040528092919081815260200182805461064690611347565b80156106935780601f1061066857610100808354040283529160200191610693565b820191906000526020600020905b81548152906001019060200180831161067657829003601f168201915b5050505050905090565b6000806106a86109cb565b905060006106b68286610798565b9050838110156106fb576040517f08c379a00000000000000000000000000000000000000000000000000000000081526004016106f29061160d565b60405180910390fd5b61070882868684036109d3565b60019250505092915050565b60066020528060005260406000206000915090505481565b6000806107376109cb565b9050610744818585610c28565b600191505092915050565b6000600660008373ffffffffffffffffffffffffffffffffffffffff1673ffffffffffffffffffffffffffffffffffffffff168152602001908152602001600020549050919050565b6000600160008473ffffffffffffffffffffffffffffffffffffffff1673ffffffffffffffffffffffffffffffffffffffff16815260200190815260200160002060008373ffffffffffffffffffffffffffffffffffffffff1673ffffffffffffffffffffffffffffffffffffffff16815260200190815260200160002054905092915050565b600660003373ffffffffffffffffffffffffffffffffffffffff1673ffffffffffffffffffffffffffffffffffffffff16815260200190815260200160002054421115610898576040517fe514afae00000000000000000000000000000000000000000000000000000000815260040160405180910390fd5b6108a433612710610e9e565b6001600560003373ffffffffffffffffffffffffffffffffffffffff1673ffffffffffffffffffffffffffffffffffffffff16815260200190815260200160002060009054906101000a900461ffff166108fe919061162d565b600560003373ffffffffffffffffffffffffffffffffffffffff1673ffffffffffffffffffffffffffffffffffffffff16815260200190815260200160002060006101000a81548161ffff021916908361ffff16021790555061012c4261096591906113a7565b600660003373ffffffffffffffffffffffffffffffffffffffff1673ffffffffffffffffffffffffffffffffffffffff16815260200190815260200160002081905550565b60056020528060005260406000206000915054906101000a900461ffff1681565b600033905090565b600073ffffffffffffffffffffffffffffffffffffffff168373ffffffffffffffffffffffffffffffffffffffff1603610a42576040517f08c379a0000000000000000000000000000000000000000000000000000000008152600401610a39906116d5565b60405180910390fd5b600073ffffffffffffffffffffffffffffffffffffffff168273ffffffffffffffffffffffffffffffffffffffff1603610ab1576040517f08c379a0000000000000000000000000000000000000000000000000000000008152600401610aa890611767565b60405180910390fd5b80600160008573ffffffffffffffffffffffffffffffffffffffff1673ffffffffffffffffffffffffffffffffffffffff16815260200190815260200160002060008473ffffffffffffffffffffffffffffffffffffffff1673ffffffffffffffffffffffffffffffffffffffff168152602001908152602001600020819055508173ffffffffffffffffffffffffffffffffffffffff168373ffffffffffffffffffffffffffffffffffffffff167f8c5be1e5ebec7d5bd14f71427d1e84f3dd0314c0f7b2291e5b200ac8c7c3b92583604051610b8f9190611233565b60405180910390a3505050565b6000610ba88484610798565b90507fffffffffffffffffffffffffffffffffffffffffffffffffffffffffffffffff8114610c225781811015610c14576040517f08c379a0000000000000000000000000000000000000000000000000000000008152600401610c0b906117d3565b60405180910390fd5b610c2184848484036109d3565b5b50505050565b600073ffffffffffffffffffffffffffffffffffffffff168373ffffffffffffffffffffffffffffffffffffffff1603610c97576040517f08c379a0000000000000000000000000000000000000000000000000000000008152600401610c8e90611865565b60405180910390fd5b600073ffffffffffffffffffffffffffffffffffffffff168273ffffffffffffffffffffffffffffffffffffffff1603610d06576040517f08c379a0000000000000000000000000000000000000000000000000000000008152600401610cfd906118f7565b60405180910390fd5b610d11838383610ff4565b60008060008573ffffffffffffffffffffffffffffffffffffffff1673ffffffffffffffffffffffffffffffffffffffff16815260200190815260200160002054905081811015610d97576040517f08c379a0000000000000000000000000000000000000000000000000000000008152600401610d8e90611989565b60405180910390fd5b8181036000808673ffffffffffffffffffffffffffffffffffffffff1673ffffffffffffffffffffffffffffffffffffffff16815260200190815260200160002081905550816000808573ffffffffffffffffffffffffffffffffffffffff1673ffffffffffffffffffffffffffffffffffffffff168152602001908152602001600020600082825401925050819055508273ffffffffffffffffffffffffffffffffffffffff168473ffffffffffffffffffffffffffffffffffffffff167fddf252ad1be2c89b69c2b068fc378daa952ba7f163c4a11628f55a4df523b3ef84604051610e859190611233565b60405180910390a3610e98848484610ff9565b50505050565b600073ffffffffffffffffffffffffffffffffffffffff168273ffffffffffffffffffffffffffffffffffffffff1603610f0d576040517f08c379a0000000000000000000000000000000000000000000000000000000008152600401610f04906119f5565b60405180910390fd5b610f1960008383610ff4565b8060026000828254610f2b91906113a7565b92505081905550806000808473ffffffffffffffffffffffffffffffffffffffff1673ffffffffffffffffffffffffffffffffffffffff168152602001908152602001600020600082825401925050819055508173ffffffffffffffffffffffffffffffffffffffff16600073ffffffffffffffffffffffffffffffffffffffff167fddf252ad1be2c89b69c2b068fc378daa952ba7f163c4a11628f55a4df523b3ef83604051610fdc9190611233565b60405180910390a3610ff060008383610ff9565b5050565b505050565b505050565b600081519050919050565b600082825260208201905092915050565b60005b8381101561103857808201518184015260208101905061101d565b60008484015250505050565b6000601f19601f8301169050919050565b600061106082610ffe565b61106a8185611009565b935061107a81856020860161101a565b61108381611044565b840191505092915050565b600060208201905081810360008301526110a88184611055565b905092915050565b600080fd5b600073ffffffffffffffffffffffffffffffffffffffff82169050919050565b60006110e0826110b5565b9050919050565b6110f0816110d5565b81146110fb57600080fd5b50565b60008135905061110d816110e7565b92915050565b6000819050919050565b61112681611113565b811461113157600080fd5b50565b6000813590506111438161111d565b92915050565b600080604083850312156111605761115f6110b0565b5b600061116e858286016110fe565b925050602061117f85828601611134565b9150509250929050565b60008115159050919050565b61119e81611189565b82525050565b60006020820190506111b96000830184611195565b92915050565b6000602082840312156111d5576111d46110b0565b5b60006111e3848285016110fe565b91505092915050565b600061ffff82169050919050565b611203816111ec565b82525050565b600060208201905061121e60008301846111fa565b92915050565b61122d81611113565b82525050565b60006020820190506112486000830184611224565b92915050565b600080600060608486031215611267576112666110b0565b5b6000611275868287016110fe565b9350506020611286868287016110fe565b925050604061129786828701611134565b9150509250925092565b600060ff82169050919050565b6112b7816112a1565b82525050565b60006020820190506112d260008301846112ae565b92915050565b600080604083850312156112ef576112ee6110b0565b5b60006112fd858286016110fe565b925050602061130e858286016110fe565b9150509250929050565b7f4e487b7100000000000000000000000000000000000000000000000000000000600052602260045260246000fd5b6000600282049050600182168061135f57607f821691505b60208210810361137257611371611318565b5b50919050565b7f4e487b7100000000000000000000000000000000000000000000000000000000600052601160045260246000fd5b60006113b282611113565b91506113bd83611113565b92508282019050808211156113d5576113d4611378565b5b92915050565b60008160011c9050919050565b6000808291508390505b60018511156114325780860481111561140e5761140d611378565b5b600185161561141d5780820291505b808102905061142b856113db565b94506113f2565b94509492505050565b60008261144b5760019050611507565b816114595760009050611507565b816001811461146f5760028114611479576114a8565b6001915050611507565b60ff84111561148b5761148a611378565b5b8360020a9150848211156114a2576114a1611378565b5b50611507565b5060208310610133831016604e8410600b84101617156114dd5782820a9050838111156114d8576114d7611378565b5b611507565b6114ea84848460016113e8565b9250905081840481111561150157611500611378565b5b81810290505b9392505050565b600061151982611113565b9150611524836112a1565b92506115517fffffffffffffffffffffffffffffffffffffffffffffffffffffffffffffffff848461143b565b905092915050565b600061156482611113565b915061156f83611113565b925082820261157d81611113565b9150828204841483151761159457611593611378565b5b5092915050565b7f45524332303a2064656372656173656420616c6c6f77616e63652062656c6f7760008201527f207a65726f000000000000000000000000000000000000000000000000000000602082015250565b60006115f7602583611009565b91506116028261159b565b604082019050919050565b60006020820190508181036000830152611626816115ea565b9050919050565b6000611638826111ec565b9150611643836111ec565b9250828201905061ffff81111561165d5761165c611378565b5b92915050565b7f45524332303a20617070726f76652066726f6d20746865207a65726f2061646460008201527f7265737300000000000000000000000000000000000000000000000000000000602082015250565b60006116bf602483611009565b91506116ca82611663565b604082019050919050565b600060208201905081810360008301526116ee816116b2565b9050919050565b7f45524332303a20617070726f766520746f20746865207a65726f20616464726560008201527f7373000000000000000000000000000000000000000000000000000000000000602082015250565b6000611751602283611009565b915061175c826116f5565b604082019050919050565b6000602082019050818103600083015261178081611744565b9050919050565b7f45524332303a20696e73756666696369656e7420616c6c6f77616e6365000000600082015250565b60006117bd601d83611009565b91506117c882611787565b602082019050919050565b600060208201905081810360008301526117ec816117b0565b9050919050565b7f45524332303a207472616e736665722066726f6d20746865207a65726f20616460008201527f6472657373000000000000000000000000000000000000000000000000000000602082015250565b600061184f602583611009565b915061185a826117f3565b604082019050919050565b6000602082019050818103600083015261187e81611842565b9050919050565b7f45524332303a207472616e7366657220746f20746865207a65726f206164647260008201527f6573730000000000000000000000000000000000000000000000000000000000602082015250565b60006118e1602383611009565b91506118ec82611885565b604082019050919050565b60006020820190508181036000830152611910816118d4565b9050919050565b7f45524332303a207472616e7366657220616d6f756e742065786365656473206260008201527f616c616e63650000000000000000000000000000000000000000000000000000602082015250565b6000611973602683611009565b915061197e82611917565b604082019050919050565b600060208201905081810360008301526119a281611966565b9050919050565b7f45524332303a206d696e7420746f20746865207a65726f206164647265737300600082015250565b60006119df601f83611009565b91506119ea826119a9565b602082019050919050565b60006020820190508181036000830152611a0e816119d2565b905091905056fea2646970667358221220d0583b95e46c15c96d60440a9d290177e19a09a1c9a1d5f3ae6a86454ccea2dd64736f6c63430008110033",
  "linkReferences": {},
  "deployedLinkReferences": {}
}