{
  "_format": "hh-sol-artifact-1",
  "contractName": "ZhuExchange",
  "sourceName": "contracts/ZhuExchange.sol",
  "abi": [
    {
      "inputs": [
        {
          "internalType": "address",
          "name": "zhuContractAddress",
          "type": "address"
        }
      ],
      "stateMutability": "nonpayable",
      "type": "constructor"
    },
    {
      "inputs": [],
      "name": "ZhuExchange__NotEnoughBalance",
      "type": "error"
    },
    {
      "inputs": [
        {
          "internalType": "uint256",
          "name": "finalWeight",
          "type": "uint256"
        }
      ],
      "name": "executeTrades",
      "outputs": [],
      "stateMutability": "nonpayable",
      "type": "function"
    },
    {
      "inputs": [],
      "name": "getPositions",
      "outputs": [
        {
          "components": [
            {
              "internalType": "enum ZhuExchange.PositionType",
              "name": "positionType",
              "type": "uint8"
            },
            {
              "internalType": "uint256",
              "name": "amount",
              "type": "uint256"
            },
            {
              "internalType": "uint16",
              "name": "weightSnapshot",
              "type": "uint16"
            }
          ],
          "internalType": "struct ZhuExchange.Position[]",
          "name": "",
          "type": "tuple[]"
        }
      ],
      "stateMutability": "view",
      "type": "function"
    },
    {
      "inputs": [
        {
          "internalType": "address",
          "name": "_address",
          "type": "address"
        }
      ],
      "name": "getPositionsOf",
      "outputs": [
        {
          "components": [
            {
              "internalType": "enum ZhuExchange.PositionType",
              "name": "positionType",
              "type": "uint8"
            },
            {
              "internalType": "uint256",
              "name": "amount",
              "type": "uint256"
            },
            {
              "internalType": "uint16",
              "name": "weightSnapshot",
              "type": "uint16"
            }
          ],
          "internalType": "struct ZhuExchange.Position[]",
          "name": "",
          "type": "tuple[]"
        }
      ],
      "stateMutability": "view",
      "type": "function"
    },
    {
      "inputs": [],
      "name": "getUsers",
      "outputs": [
        {
          "internalType": "address payable[]",
          "name": "",
          "type": "address[]"
        }
      ],
      "stateMutability": "view",
      "type": "function"
    },
    {
      "inputs": [
        {
          "internalType": "uint256",
          "name": "amount",
          "type": "uint256"
        },
        {
          "internalType": "uint16",
          "name": "weight",
          "type": "uint16"
        }
      ],
      "name": "long",
      "outputs": [],
      "stateMutability": "nonpayable",
      "type": "function"
    },
    {
      "inputs": [
        {
          "internalType": "address",
          "name": "",
          "type": "address"
        },
        {
          "internalType": "uint256",
          "name": "",
          "type": "uint256"
        }
      ],
      "name": "s_positions",
      "outputs": [
        {
          "internalType": "enum ZhuExchange.PositionType",
          "name": "positionType",
          "type": "uint8"
        },
        {
          "internalType": "uint256",
          "name": "amount",
          "type": "uint256"
        },
        {
          "internalType": "uint16",
          "name": "weightSnapshot",
          "type": "uint16"
        }
      ],
      "stateMutability": "view",
      "type": "function"
    },
    {
      "inputs": [
        {
          "internalType": "uint256",
          "name": "amount",
          "type": "uint256"
        },
        {
          "internalType": "uint16",
          "name": "weight",
          "type": "uint16"
        }
      ],
      "name": "short",
      "outputs": [],
      "stateMutability": "nonpayable",
      "type": "function"
    }
  ],
  "bytecode": "0x60806040523480156200001157600080fd5b5060405162001d1938038062001d198339818101604052810190620000379190620000e8565b806000806101000a81548173ffffffffffffffffffffffffffffffffffffffff021916908373ffffffffffffffffffffffffffffffffffffffff160217905550506200011a565b600080fd5b600073ffffffffffffffffffffffffffffffffffffffff82169050919050565b6000620000b08262000083565b9050919050565b620000c281620000a3565b8114620000ce57600080fd5b50565b600081519050620000e281620000b7565b92915050565b6000602082840312156200010157620001006200007e565b5b60006200011184828501620000d1565b91505092915050565b611bef806200012a6000396000f3fe608060405234801561001057600080fd5b506004361061007c5760003560e01c80630f0ee64f1161005b5780630f0ee64f146100ed57806375d99c5b146101095780638027586014610139578063e9103509146101575761007c565b8062ce8e3e14610081578063010b39dc1461009f5780630e10b838146100d1575b600080fd5b610089610173565b60405161009691906113d6565b60405180910390f35b6100b960048036038101906100b49190611471565b610201565b6040516100c893929190611554565b60405180910390f35b6100eb60048036038101906100e691906115b7565b610263565b005b610107600480360381019061010291906115b7565b61055f565b005b610123600480360381019061011e91906115f7565b61085a565b6040516101309190611742565b60405180910390f35b61014161095d565b60405161014e9190611742565b60405180910390f35b610171600480360381019061016c9190611764565b610a5e565b005b606060018054806020026020016040519081016040528092919081815260200182805480156101f757602002820191906000526020600020905b8160009054906101000a900473ffffffffffffffffffffffffffffffffffffffff1673ffffffffffffffffffffffffffffffffffffffff16815260200190600101908083116101ad575b5050505050905090565b6002602052816000526040600020818154811061021d57600080fd5b9060005260206000209060030201600091509150508060000160009054906101000a900460ff16908060010154908060020160009054906101000a900461ffff16905083565b670de0b6b3a76400008261027791906117c0565b60008054906101000a900473ffffffffffffffffffffffffffffffffffffffff1673ffffffffffffffffffffffffffffffffffffffff1663dd62ed3e33306040518363ffffffff1660e01b81526004016102d2929190611811565b602060405180830381865afa1580156102ef573d6000803e3d6000fd5b505050506040513d601f19601f82011682018060405250810190610313919061184f565b101561034b576040517f68178e8700000000000000000000000000000000000000000000000000000000815260040160405180910390fd5b60008054906101000a900473ffffffffffffffffffffffffffffffffffffffff1673ffffffffffffffffffffffffffffffffffffffff166323b872dd3330670de0b6b3a76400008661039d91906117c0565b6040518463ffffffff1660e01b81526004016103bb9392919061187c565b6020604051808303816000875af11580156103da573d6000803e3d6000fd5b505050506040513d601f19601f820116820180604052508101906103fe91906118eb565b506001339080600181540180825580915050600190039060005260206000200160009091909190916101000a81548173ffffffffffffffffffffffffffffffffffffffff021916908373ffffffffffffffffffffffffffffffffffffffff160217905550600260003373ffffffffffffffffffffffffffffffffffffffff1673ffffffffffffffffffffffffffffffffffffffff1681526020019081526020016000206040518060600160405280600060018111156104c0576104bf6114b1565b5b81526020018481526020018361ffff16815250908060018154018082558091505060019003906000526020600020906003020160009091909190915060008201518160000160006101000a81548160ff02191690836001811115610527576105266114b1565b5b02179055506020820151816001015560408201518160020160006101000a81548161ffff021916908361ffff16021790555050505050565b670de0b6b3a76400008261057391906117c0565b60008054906101000a900473ffffffffffffffffffffffffffffffffffffffff1673ffffffffffffffffffffffffffffffffffffffff1663dd62ed3e33306040518363ffffffff1660e01b81526004016105ce929190611811565b602060405180830381865afa1580156105eb573d6000803e3d6000fd5b505050506040513d601f19601f8201168201806040525081019061060f919061184f565b1015610647576040517f68178e8700000000000000000000000000000000000000000000000000000000815260040160405180910390fd5b60008054906101000a900473ffffffffffffffffffffffffffffffffffffffff1673ffffffffffffffffffffffffffffffffffffffff166323b872dd3330670de0b6b3a76400008661069991906117c0565b6040518463ffffffff1660e01b81526004016106b79392919061187c565b6020604051808303816000875af11580156106d6573d6000803e3d6000fd5b505050506040513d601f19601f820116820180604052508101906106fa91906118eb565b506001339080600181540180825580915050600190039060005260206000200160009091909190916101000a81548173ffffffffffffffffffffffffffffffffffffffff021916908373ffffffffffffffffffffffffffffffffffffffff160217905550600260003373ffffffffffffffffffffffffffffffffffffffff1673ffffffffffffffffffffffffffffffffffffffff16815260200190815260200160002060405180606001604052806001808111156107bb576107ba6114b1565b5b81526020018481526020018361ffff16815250908060018154018082558091505060019003906000526020600020906003020160009091909190915060008201518160000160006101000a81548160ff02191690836001811115610822576108216114b1565b5b02179055506020820151816001015560408201518160020160006101000a81548161ffff021916908361ffff16021790555050505050565b6060600260008373ffffffffffffffffffffffffffffffffffffffff1673ffffffffffffffffffffffffffffffffffffffff168152602001908152602001600020805480602002602001604051908101604052809291908181526020016000905b8282101561095257838290600052602060002090600302016040518060600160405290816000820160009054906101000a900460ff166001811115610903576109026114b1565b5b6001811115610915576109146114b1565b5b8152602001600182015481526020016002820160009054906101000a900461ffff1661ffff1661ffff1681525050815260200190600101906108bb565b505050509050919050565b6060600260003373ffffffffffffffffffffffffffffffffffffffff1673ffffffffffffffffffffffffffffffffffffffff168152602001908152602001600020805480602002602001604051908101604052809291908181526020016000905b82821015610a5557838290600052602060002090600302016040518060600160405290816000820160009054906101000a900460ff166001811115610a0657610a056114b1565b5b6001811115610a1857610a176114b1565b5b8152602001600182015481526020016002820160009054906101000a900461ffff1661ffff1661ffff1681525050815260200190600101906109be565b50505050905090565b60005b6001805490508110156112e25760005b6002600060018481548110610a8957610a88611918565b5b9060005260206000200160009054906101000a900473ffffffffffffffffffffffffffffffffffffffff1673ffffffffffffffffffffffffffffffffffffffff1673ffffffffffffffffffffffffffffffffffffffff168152602001908152602001600020805490508110156112ce576000600260003373ffffffffffffffffffffffffffffffffffffffff1673ffffffffffffffffffffffffffffffffffffffff168152602001908152602001600020600081548110610b4d57610b4c611918565b5b906000526020600020906003020160020160009054906101000a900461ffff1660010b84610b7b9190611951565b90506000600260003373ffffffffffffffffffffffffffffffffffffffff1673ffffffffffffffffffffffffffffffffffffffff168152602001908152602001600020600081548110610bd157610bd0611918565b5b906000526020600020906003020160020160009054906101000a900461ffff1660010b61271083610c029190611994565b610c0c9190611a3b565b905060006127106002600060018881548110610c2b57610c2a611918565b5b9060005260206000200160009054906101000a900473ffffffffffffffffffffffffffffffffffffffff1673ffffffffffffffffffffffffffffffffffffffff1673ffffffffffffffffffffffffffffffffffffffff1681526020019081526020016000208581548110610ca257610ca1611918565b5b906000526020600020906003020160010154610cbe91906117c0565b905060006127108383610cd19190611994565b610cdb9190611a3b565b9050600180811115610cf057610cef6114b1565b5b6002600060018981548110610d0857610d07611918565b5b9060005260206000200160009054906101000a900473ffffffffffffffffffffffffffffffffffffffff1673ffffffffffffffffffffffffffffffffffffffff1673ffffffffffffffffffffffffffffffffffffffff1681526020019081526020016000208681548110610d7f57610d7e611918565b5b906000526020600020906003020160000160009054906101000a900460ff166001811115610db057610daf6114b1565b5b03610fcb576000831215610ebf5760006127108284610dcf9190611aa5565b610dd99190611a3b565b905060008054906101000a900473ffffffffffffffffffffffffffffffffffffffff1673ffffffffffffffffffffffffffffffffffffffff1663669a1f6960018981548110610e2b57610e2a611918565b5b9060005260206000200160009054906101000a900473ffffffffffffffffffffffffffffffffffffffff16670de0b6b3a764000084610e6a91906117c0565b6040518363ffffffff1660e01b8152600401610e87929190611b48565b600060405180830381600087803b158015610ea157600080fd5b505af1158015610eb5573d6000803e3d6000fd5b5050505050610fc6565b6000831315610fc55760006127108284610ed99190611aa5565b610ee39190611a3b565b905060008054906101000a900473ffffffffffffffffffffffffffffffffffffffff1673ffffffffffffffffffffffffffffffffffffffff1663669a1f6960018981548110610f3557610f34611918565b5b9060005260206000200160009054906101000a900473ffffffffffffffffffffffffffffffffffffffff16670de0b6b3a764000084610f7491906117c0565b6040518363ffffffff1660e01b8152600401610f91929190611b48565b600060405180830381600087803b158015610fab57600080fd5b505af1158015610fbf573d6000803e3d6000fd5b50505050505b5b6112b7565b60006001811115610fdf57610fde6114b1565b5b6002600060018981548110610ff757610ff6611918565b5b9060005260206000200160009054906101000a900473ffffffffffffffffffffffffffffffffffffffff1673ffffffffffffffffffffffffffffffffffffffff1673ffffffffffffffffffffffffffffffffffffffff168152602001908152602001600020868154811061106e5761106d611918565b5b906000526020600020906003020160000160009054906101000a900460ff16600181111561109f5761109e6114b1565b5b036112b65760008312156111ae57600061271082846110be9190611951565b6110c89190611a3b565b905060008054906101000a900473ffffffffffffffffffffffffffffffffffffffff1673ffffffffffffffffffffffffffffffffffffffff1663669a1f696001898154811061111a57611119611918565b5b9060005260206000200160009054906101000a900473ffffffffffffffffffffffffffffffffffffffff16670de0b6b3a76400008461115991906117c0565b6040518363ffffffff1660e01b8152600401611176929190611b48565b600060405180830381600087803b15801561119057600080fd5b505af11580156111a4573d6000803e3d6000fd5b50505050506112b5565b60008313156112b457600061271082846111c89190611951565b6111d29190611a3b565b905060008054906101000a900473ffffffffffffffffffffffffffffffffffffffff1673ffffffffffffffffffffffffffffffffffffffff1663669a1f696001898154811061122457611223611918565b5b9060005260206000200160009054906101000a900473ffffffffffffffffffffffffffffffffffffffff16670de0b6b3a76400008461126391906117c0565b6040518363ffffffff1660e01b8152600401611280929190611b48565b600060405180830381600087803b15801561129a57600080fd5b505af11580156112ae573d6000803e3d6000fd5b50505050505b5b5b5b5050505080806112c690611b71565b915050610a71565b5080806112da90611b71565b915050610a61565b5050565b600081519050919050565b600082825260208201905092915050565b6000819050602082019050919050565b600073ffffffffffffffffffffffffffffffffffffffff82169050919050565b600061133d82611312565b9050919050565b61134d81611332565b82525050565b600061135f8383611344565b60208301905092915050565b6000602082019050919050565b6000611383826112e6565b61138d81856112f1565b935061139883611302565b8060005b838110156113c95781516113b08882611353565b97506113bb8361136b565b92505060018101905061139c565b5085935050505092915050565b600060208201905081810360008301526113f08184611378565b905092915050565b600080fd5b600061140882611312565b9050919050565b611418816113fd565b811461142357600080fd5b50565b6000813590506114358161140f565b92915050565b6000819050919050565b61144e8161143b565b811461145957600080fd5b50565b60008135905061146b81611445565b92915050565b60008060408385031215611488576114876113f8565b5b600061149685828601611426565b92505060206114a78582860161145c565b9150509250929050565b7f4e487b7100000000000000000000000000000000000000000000000000000000600052602160045260246000fd5b600281106114f1576114f06114b1565b5b50565b6000819050611502826114e0565b919050565b6000611512826114f4565b9050919050565b61152281611507565b82525050565b6115318161143b565b82525050565b600061ffff82169050919050565b61154e81611537565b82525050565b60006060820190506115696000830186611519565b6115766020830185611528565b6115836040830184611545565b949350505050565b61159481611537565b811461159f57600080fd5b50565b6000813590506115b18161158b565b92915050565b600080604083850312156115ce576115cd6113f8565b5b60006115dc8582860161145c565b92505060206115ed858286016115a2565b9150509250929050565b60006020828403121561160d5761160c6113f8565b5b600061161b84828501611426565b91505092915050565b600081519050919050565b600082825260208201905092915050565b6000819050602082019050919050565b61165981611507565b82525050565b6116688161143b565b82525050565b61167781611537565b82525050565b6060820160008201516116936000850182611650565b5060208201516116a6602085018261165f565b5060408201516116b9604085018261166e565b50505050565b60006116cb838361167d565b60608301905092915050565b6000602082019050919050565b60006116ef82611624565b6116f9818561162f565b935061170483611640565b8060005b8381101561173557815161171c88826116bf565b9750611727836116d7565b925050600181019050611708565b5085935050505092915050565b6000602082019050818103600083015261175c81846116e4565b905092915050565b60006020828403121561177a576117796113f8565b5b60006117888482850161145c565b91505092915050565b7f4e487b7100000000000000000000000000000000000000000000000000000000600052601160045260246000fd5b60006117cb8261143b565b91506117d68361143b565b92508282026117e48161143b565b915082820484148315176117fb576117fa611791565b5b5092915050565b61180b816113fd565b82525050565b60006040820190506118266000830185611802565b6118336020830184611802565b9392505050565b60008151905061184981611445565b92915050565b600060208284031215611865576118646113f8565b5b60006118738482850161183a565b91505092915050565b60006060820190506118916000830186611802565b61189e6020830185611802565b6118ab6040830184611528565b949350505050565b60008115159050919050565b6118c8816118b3565b81146118d357600080fd5b50565b6000815190506118e5816118bf565b92915050565b600060208284031215611901576119006113f8565b5b600061190f848285016118d6565b91505092915050565b7f4e487b7100000000000000000000000000000000000000000000000000000000600052603260045260246000fd5b6000819050919050565b600061195c82611947565b915061196783611947565b925082820390508181126000841216828213600085121516171561198e5761198d611791565b5b92915050565b600061199f82611947565b91506119aa83611947565b92508282026119b881611947565b91507f800000000000000000000000000000000000000000000000000000000000000084146000841216156119f0576119ef611791565b5b8282058414831517611a0557611a04611791565b5b5092915050565b7f4e487b7100000000000000000000000000000000000000000000000000000000600052601260045260246000fd5b6000611a4682611947565b9150611a5183611947565b925082611a6157611a60611a0c565b5b600160000383147f800000000000000000000000000000000000000000000000000000000000000083141615611a9a57611a99611791565b5b828205905092915050565b6000611ab082611947565b9150611abb83611947565b925082820190508281121560008312168382126000841215161715611ae357611ae2611791565b5b92915050565b6000819050919050565b6000611b0e611b09611b0484611312565b611ae9565b611312565b9050919050565b6000611b2082611af3565b9050919050565b6000611b3282611b15565b9050919050565b611b4281611b27565b82525050565b6000604082019050611b5d6000830185611b39565b611b6a6020830184611528565b9392505050565b6000611b7c8261143b565b91507fffffffffffffffffffffffffffffffffffffffffffffffffffffffffffffffff8203611bae57611bad611791565b5b60018201905091905056fea264697066735822122076da4c5328e8dca36807be2bb067c84c2dc3461308e4ea729451b8601be5f6f364736f6c63430008110033",
  "linkReferences": {},
  "deployedLinkReferences": {}
}